{
  "contractName": "TransportRegister",
  "abi": [
    {
      "inputs": [],
      "stateMutability": "nonpayable",
      "type": "constructor"
    },
    {
      "inputs": [],
      "name": "owner",
      "outputs": [
        {
          "internalType": "address",
          "name": "",
          "type": "address"
        }
      ],
      "stateMutability": "view",
      "type": "function",
      "constant": true
    },
    {
      "inputs": [],
      "name": "packagesCount",
      "outputs": [
        {
          "internalType": "uint256",
          "name": "",
          "type": "uint256"
        }
      ],
      "stateMutability": "view",
      "type": "function",
      "constant": true
    },
    {
      "inputs": [
        {
          "components": [
            {
              "internalType": "string",
              "name": "description",
              "type": "string"
            },
            {
              "components": [
                {
                  "internalType": "string",
                  "name": "name",
                  "type": "string"
                },
                {
                  "internalType": "string",
                  "name": "district",
                  "type": "string"
                },
                {
                  "internalType": "string",
                  "name": "city",
                  "type": "string"
                },
                {
                  "internalType": "string",
                  "name": "state",
                  "type": "string"
                },
                {
                  "internalType": "string",
                  "name": "number",
                  "type": "string"
                },
                {
                  "internalType": "string",
                  "name": "complement",
                  "type": "string"
                }
              ],
              "internalType": "struct TransportRegister.StreetAddress",
              "name": "deliveryAddress",
              "type": "tuple"
            }
          ],
          "internalType": "struct TransportRegister.PackageData",
          "name": "packageData",
          "type": "tuple"
        },
        {
          "internalType": "address",
          "name": "receiver",
          "type": "address"
        }
      ],
      "name": "registerPackage",
      "outputs": [],
      "stateMutability": "nonpayable",
      "type": "function"
    },
    {
      "inputs": [
        {
          "internalType": "string",
          "name": "packageId",
          "type": "string"
        }
      ],
      "name": "getPackage",
      "outputs": [
        {
          "components": [
            {
              "internalType": "string",
              "name": "packageId",
              "type": "string"
            },
            {
              "internalType": "string",
              "name": "description",
              "type": "string"
            },
            {
              "internalType": "address",
              "name": "sender",
              "type": "address"
            },
            {
              "internalType": "address",
              "name": "receiver",
              "type": "address"
            },
            {
              "components": [
                {
                  "internalType": "string",
                  "name": "name",
                  "type": "string"
                },
                {
                  "internalType": "string",
                  "name": "district",
                  "type": "string"
                },
                {
                  "internalType": "string",
                  "name": "city",
                  "type": "string"
                },
                {
                  "internalType": "string",
                  "name": "state",
                  "type": "string"
                },
                {
                  "internalType": "string",
                  "name": "number",
                  "type": "string"
                },
                {
                  "internalType": "string",
                  "name": "complement",
                  "type": "string"
                }
              ],
              "internalType": "struct TransportRegister.StreetAddress",
              "name": "deliveryAddress",
              "type": "tuple"
            },
            {
              "internalType": "enum TransportRegister.PackageStatus",
              "name": "status",
              "type": "uint8"
            },
            {
              "internalType": "uint256",
              "name": "createdDate",
              "type": "uint256"
            },
            {
              "internalType": "uint256",
              "name": "lastUpdatedDate",
              "type": "uint256"
            },
            {
              "internalType": "bool",
              "name": "exists",
              "type": "bool"
            }
          ],
          "internalType": "struct TransportRegister.Package",
          "name": "",
          "type": "tuple"
        }
      ],
      "stateMutability": "view",
      "type": "function",
      "constant": true
    },
    {
      "inputs": [
        {
          "internalType": "string",
          "name": "packageId",
          "type": "string"
        }
      ],
      "name": "getPackageStatus",
      "outputs": [
        {
          "components": [
            {
              "internalType": "string",
              "name": "statusMessage",
              "type": "string"
            },
            {
              "internalType": "enum TransportRegister.PackageStatus",
              "name": "status",
              "type": "uint8"
            },
            {
              "internalType": "uint256",
              "name": "createdDate",
              "type": "uint256"
            },
            {
              "internalType": "uint256",
              "name": "lastUpdatedDate",
              "type": "uint256"
            }
          ],
          "internalType": "struct TransportRegister.PackageStatusDTO",
          "name": "",
          "type": "tuple"
        }
      ],
      "stateMutability": "view",
      "type": "function",
      "constant": true
    },
    {
      "inputs": [
        {
          "internalType": "string",
          "name": "packageId",
          "type": "string"
        },
        {
          "internalType": "uint256",
          "name": "newStatus",
          "type": "uint256"
        }
      ],
      "name": "updatePackageStatus",
      "outputs": [],
      "stateMutability": "nonpayable",
      "type": "function"
    },
    {
      "inputs": [],
      "name": "listMySentPackages",
      "outputs": [
        {
          "components": [
            {
              "internalType": "string",
              "name": "packageId",
              "type": "string"
            },
            {
              "internalType": "string",
              "name": "description",
              "type": "string"
            },
            {
              "internalType": "address",
              "name": "sender",
              "type": "address"
            },
            {
              "internalType": "address",
              "name": "receiver",
              "type": "address"
            },
            {
              "components": [
                {
                  "internalType": "string",
                  "name": "name",
                  "type": "string"
                },
                {
                  "internalType": "string",
                  "name": "district",
                  "type": "string"
                },
                {
                  "internalType": "string",
                  "name": "city",
                  "type": "string"
                },
                {
                  "internalType": "string",
                  "name": "state",
                  "type": "string"
                },
                {
                  "internalType": "string",
                  "name": "number",
                  "type": "string"
                },
                {
                  "internalType": "string",
                  "name": "complement",
                  "type": "string"
                }
              ],
              "internalType": "struct TransportRegister.StreetAddress",
              "name": "deliveryAddress",
              "type": "tuple"
            },
            {
              "internalType": "enum TransportRegister.PackageStatus",
              "name": "status",
              "type": "uint8"
            },
            {
              "internalType": "uint256",
              "name": "createdDate",
              "type": "uint256"
            },
            {
              "internalType": "uint256",
              "name": "lastUpdatedDate",
              "type": "uint256"
            },
            {
              "internalType": "bool",
              "name": "exists",
              "type": "bool"
            }
          ],
          "internalType": "struct TransportRegister.Package[]",
          "name": "",
          "type": "tuple[]"
        }
      ],
      "stateMutability": "view",
      "type": "function",
      "constant": true
    }
  ],
  "bytecode": "0x60806040523480156200001157600080fd5b50336000806101000a81548173ffffffffffffffffffffffffffffffffffffffff021916908373ffffffffffffffffffffffffffffffffffffffff1602179055506040518060400160405280601081526020017f456d2070726f63657373616d656e746f00000000000000000000000000000000815250600460008081526020019081526020016000209080519060200190620000b0929190620001df565b506040518060400160405280600d81526020017f456d207472616e73706f727465000000000000000000000000000000000000008152506004600060018152602001908152602001600020908051906020019062000110929190620001df565b506040518060400160405280600881526020017f456e7472656775650000000000000000000000000000000000000000000000008152506004600060028152602001908152602001600020908051906020019062000170929190620001df565b506040518060400160405280600981526020017f43616e63656c61646f000000000000000000000000000000000000000000000081525060046000600381526020019081526020016000209080519060200190620001d0929190620001df565b506000600181905550620002f4565b828054620001ed906200028f565b90600052602060002090601f0160209004810192826200021157600085556200025d565b82601f106200022c57805160ff19168380011785556200025d565b828001600101855582156200025d579182015b828111156200025c5782518255916020019190600101906200023f565b5b5090506200026c919062000270565b5090565b5b808211156200028b57600081600090555060010162000271565b5090565b60006002820490506001821680620002a857607f821691505b60208210811415620002bf57620002be620002c5565b5b50919050565b7f4e487b7100000000000000000000000000000000000000000000000000000000600052602260045260246000fd5b61358d80620003046000396000f3fe608060405234801561001057600080fd5b506004361061007d5760003560e01c8063a1e5c0ee1161005b578063a1e5c0ee146100ee578063ce6acb0e1461010c578063deda78a61461013c578063f38c36d8146101585761007d565b806318e10bff1461008257806387c60483146100a05780638da5cb5b146100d0575b600080fd5b61008a610174565b6040516100979190612ed7565b60405180910390f35b6100ba60048036038101906100b59190612752565b61017a565b6040516100c79190612eb5565b60405180910390f35b6100d8610984565b6040516100e59190612dd6565b60405180910390f35b6100f66109a8565b6040516101039190612df1565b60405180910390f35b61012660048036038101906101219190612752565b6111aa565b6040516101339190612e93565b60405180910390f35b6101566004803603810190610151919061279f565b611aa3565b005b610172600480360381019061016d91906127ff565b611e11565b005b60015481565b610182612356565b8282600080600260003373ffffffffffffffffffffffffffffffffffffffff1673ffffffffffffffffffffffffffffffffffffffff168152602001908152602001600020805480602002602001604051908101604052809291908181526020016000905b82821015610292578382906000526020600020018054610205906131cc565b80601f0160208091040260200160405190810160405280929190818152602001828054610231906131cc565b801561027e5780601f106102535761010080835404028352916020019161027e565b820191906000526020600020905b81548152906001019060200180831161026157829003601f168201915b5050505050815260200190600101906101e6565b50505050905060005b8151811015610300578181815181106102b7576102b6613393565b5b60200260200101518051906020012085856040516102d6929190612d8d565b604051809103902014156102ed5760019250610300565b80806102f89061322f565b91505061029b565b5081610341576040517f08c379a000000000000000000000000000000000000000000000000000000000815260040161033890612e73565b60405180910390fd5b600060038888604051610355929190612da6565b90815260200160405180910390206040518061012001604052908160008201805461037f906131cc565b80601f01602080910402602001604051908101604052809291908181526020018280546103ab906131cc565b80156103f85780601f106103cd576101008083540402835291602001916103f8565b820191906000526020600020905b8154815290600101906020018083116103db57829003601f168201915b50505050508152602001600182018054610411906131cc565b80601f016020809104026020016040519081016040528092919081815260200182805461043d906131cc565b801561048a5780601f1061045f5761010080835404028352916020019161048a565b820191906000526020600020905b81548152906001019060200180831161046d57829003601f168201915b505050505081526020016002820160009054906101000a900473ffffffffffffffffffffffffffffffffffffffff1673ffffffffffffffffffffffffffffffffffffffff1673ffffffffffffffffffffffffffffffffffffffff1681526020016003820160009054906101000a900473ffffffffffffffffffffffffffffffffffffffff1673ffffffffffffffffffffffffffffffffffffffff1673ffffffffffffffffffffffffffffffffffffffff168152602001600482016040518060c001604052908160008201805461055f906131cc565b80601f016020809104026020016040519081016040528092919081815260200182805461058b906131cc565b80156105d85780601f106105ad576101008083540402835291602001916105d8565b820191906000526020600020905b8154815290600101906020018083116105bb57829003601f168201915b505050505081526020016001820180546105f1906131cc565b80601f016020809104026020016040519081016040528092919081815260200182805461061d906131cc565b801561066a5780601f1061063f5761010080835404028352916020019161066a565b820191906000526020600020905b81548152906001019060200180831161064d57829003601f168201915b50505050508152602001600282018054610683906131cc565b80601f01602080910402602001604051908101604052809291908181526020018280546106af906131cc565b80156106fc5780601f106106d1576101008083540402835291602001916106fc565b820191906000526020600020905b8154815290600101906020018083116106df57829003601f168201915b50505050508152602001600382018054610715906131cc565b80601f0160208091040260200160405190810160405280929190818152602001828054610741906131cc565b801561078e5780601f106107635761010080835404028352916020019161078e565b820191906000526020600020905b81548152906001019060200180831161077157829003601f168201915b505050505081526020016004820180546107a7906131cc565b80601f01602080910402602001604051908101604052809291908181526020018280546107d3906131cc565b80156108205780601f106107f557610100808354040283529160200191610820565b820191906000526020600020905b81548152906001019060200180831161080357829003601f168201915b50505050508152602001600582018054610839906131cc565b80601f0160208091040260200160405190810160405280929190818152602001828054610865906131cc565b80156108b25780601f10610887576101008083540402835291602001916108b2565b820191906000526020600020905b81548152906001019060200180831161089557829003601f168201915b5050505050815250508152602001600a820160009054906101000a900460ff1660038111156108e4576108e3613335565b5b60038111156108f6576108f5613335565b5b8152602001600b8201548152602001600c8201548152602001600d820160009054906101000a900460ff16151515158152505090508061010001511561093f578095505061097a565b6040517f08c379a000000000000000000000000000000000000000000000000000000000815260040161097190612e33565b60405180910390fd5b5050505092915050565b60008054906101000a900473ffffffffffffffffffffffffffffffffffffffff1681565b60606000600260003373ffffffffffffffffffffffffffffffffffffffff1673ffffffffffffffffffffffffffffffffffffffff168152602001908152602001600020805480602002602001604051908101604052809291908181526020016000905b82821015610ab7578382906000526020600020018054610a2a906131cc565b80601f0160208091040260200160405190810160405280929190818152602001828054610a56906131cc565b8015610aa35780601f10610a7857610100808354040283529160200191610aa3565b820191906000526020600020905b815481529060010190602001808311610a8657829003601f168201915b505050505081526020019060010190610a0b565b50505050905060008151111561116c576000815167ffffffffffffffff811115610ae457610ae36133c2565b5b604051908082528060200260200182016040528015610b1d57816020015b610b0a612356565b815260200190600190039081610b025790505b50905060005b82518110156111615760006003848381518110610b4357610b42613393565b5b6020026020010151604051610b589190612dbf565b908152602001604051809103902060405180610120016040529081600082018054610b82906131cc565b80601f0160208091040260200160405190810160405280929190818152602001828054610bae906131cc565b8015610bfb5780601f10610bd057610100808354040283529160200191610bfb565b820191906000526020600020905b815481529060010190602001808311610bde57829003601f168201915b50505050508152602001600182018054610c14906131cc565b80601f0160208091040260200160405190810160405280929190818152602001828054610c40906131cc565b8015610c8d5780601f10610c6257610100808354040283529160200191610c8d565b820191906000526020600020905b815481529060010190602001808311610c7057829003601f168201915b505050505081526020016002820160009054906101000a900473ffffffffffffffffffffffffffffffffffffffff1673ffffffffffffffffffffffffffffffffffffffff1673ffffffffffffffffffffffffffffffffffffffff1681526020016003820160009054906101000a900473ffffffffffffffffffffffffffffffffffffffff1673ffffffffffffffffffffffffffffffffffffffff1673ffffffffffffffffffffffffffffffffffffffff168152602001600482016040518060c0016040529081600082018054610d62906131cc565b80601f0160208091040260200160405190810160405280929190818152602001828054610d8e906131cc565b8015610ddb5780601f10610db057610100808354040283529160200191610ddb565b820191906000526020600020905b815481529060010190602001808311610dbe57829003601f168201915b50505050508152602001600182018054610df4906131cc565b80601f0160208091040260200160405190810160405280929190818152602001828054610e20906131cc565b8015610e6d5780601f10610e4257610100808354040283529160200191610e6d565b820191906000526020600020905b815481529060010190602001808311610e5057829003601f168201915b50505050508152602001600282018054610e86906131cc565b80601f0160208091040260200160405190810160405280929190818152602001828054610eb2906131cc565b8015610eff5780601f10610ed457610100808354040283529160200191610eff565b820191906000526020600020905b815481529060010190602001808311610ee257829003601f168201915b50505050508152602001600382018054610f18906131cc565b80601f0160208091040260200160405190810160405280929190818152602001828054610f44906131cc565b8015610f915780601f10610f6657610100808354040283529160200191610f91565b820191906000526020600020905b815481529060010190602001808311610f7457829003601f168201915b50505050508152602001600482018054610faa906131cc565b80601f0160208091040260200160405190810160405280929190818152602001828054610fd6906131cc565b80156110235780601f10610ff857610100808354040283529160200191611023565b820191906000526020600020905b81548152906001019060200180831161100657829003601f168201915b5050505050815260200160058201805461103c906131cc565b80601f0160208091040260200160405190810160405280929190818152602001828054611068906131cc565b80156110b55780601f1061108a576101008083540402835291602001916110b5565b820191906000526020600020905b81548152906001019060200180831161109857829003601f168201915b5050505050815250508152602001600a820160009054906101000a900460ff1660038111156110e7576110e6613335565b5b60038111156110f9576110f8613335565b5b8152602001600b8201548152602001600c8201548152602001600d820160009054906101000a900460ff16151515158152505090508083838151811061114257611141613393565b5b60200260200101819052505080806111599061322f565b915050610b23565b5080925050506111a7565b6040517f08c379a000000000000000000000000000000000000000000000000000000000815260040161119e90612e13565b60405180910390fd5b90565b6111b26123e8565b8282600080600260003373ffffffffffffffffffffffffffffffffffffffff1673ffffffffffffffffffffffffffffffffffffffff168152602001908152602001600020805480602002602001604051908101604052809291908181526020016000905b828210156112c2578382906000526020600020018054611235906131cc565b80601f0160208091040260200160405190810160405280929190818152602001828054611261906131cc565b80156112ae5780601f10611283576101008083540402835291602001916112ae565b820191906000526020600020905b81548152906001019060200180831161129157829003601f168201915b505050505081526020019060010190611216565b50505050905060005b8151811015611330578181815181106112e7576112e6613393565b5b6020026020010151805190602001208585604051611306929190612d8d565b6040518091039020141561131d5760019250611330565b80806113289061322f565b9150506112cb565b5081611371576040517f08c379a000000000000000000000000000000000000000000000000000000000815260040161136890612e73565b60405180910390fd5b600060038888604051611385929190612da6565b9081526020016040518091039020604051806101200160405290816000820180546113af906131cc565b80601f01602080910402602001604051908101604052809291908181526020018280546113db906131cc565b80156114285780601f106113fd57610100808354040283529160200191611428565b820191906000526020600020905b81548152906001019060200180831161140b57829003601f168201915b50505050508152602001600182018054611441906131cc565b80601f016020809104026020016040519081016040528092919081815260200182805461146d906131cc565b80156114ba5780601f1061148f576101008083540402835291602001916114ba565b820191906000526020600020905b81548152906001019060200180831161149d57829003601f168201915b505050505081526020016002820160009054906101000a900473ffffffffffffffffffffffffffffffffffffffff1673ffffffffffffffffffffffffffffffffffffffff1673ffffffffffffffffffffffffffffffffffffffff1681526020016003820160009054906101000a900473ffffffffffffffffffffffffffffffffffffffff1673ffffffffffffffffffffffffffffffffffffffff1673ffffffffffffffffffffffffffffffffffffffff168152602001600482016040518060c001604052908160008201805461158f906131cc565b80601f01602080910402602001604051908101604052809291908181526020018280546115bb906131cc565b80156116085780601f106115dd57610100808354040283529160200191611608565b820191906000526020600020905b8154815290600101906020018083116115eb57829003601f168201915b50505050508152602001600182018054611621906131cc565b80601f016020809104026020016040519081016040528092919081815260200182805461164d906131cc565b801561169a5780601f1061166f5761010080835404028352916020019161169a565b820191906000526020600020905b81548152906001019060200180831161167d57829003601f168201915b505050505081526020016002820180546116b3906131cc565b80601f01602080910402602001604051908101604052809291908181526020018280546116df906131cc565b801561172c5780601f106117015761010080835404028352916020019161172c565b820191906000526020600020905b81548152906001019060200180831161170f57829003601f168201915b50505050508152602001600382018054611745906131cc565b80601f0160208091040260200160405190810160405280929190818152602001828054611771906131cc565b80156117be5780601f10611793576101008083540402835291602001916117be565b820191906000526020600020905b8154815290600101906020018083116117a157829003601f168201915b505050505081526020016004820180546117d7906131cc565b80601f0160208091040260200160405190810160405280929190818152602001828054611803906131cc565b80156118505780601f1061182557610100808354040283529160200191611850565b820191906000526020600020905b81548152906001019060200180831161183357829003601f168201915b50505050508152602001600582018054611869906131cc565b80601f0160208091040260200160405190810160405280929190818152602001828054611895906131cc565b80156118e25780601f106118b7576101008083540402835291602001916118e2565b820191906000526020600020905b8154815290600101906020018083116118c557829003601f168201915b5050505050815250508152602001600a820160009054906101000a900460ff16600381111561191457611913613335565b5b600381111561192657611925613335565b5b8152602001600b8201548152602001600c8201548152602001600d820160009054906101000a900460ff161515151581525050905080610100015115611a5e576040518060800160405280600460008460a00151600381111561198c5761198b613335565b5b815260200190815260200160002080546119a5906131cc565b80601f01602080910402602001604051908101604052809291908181526020018280546119d1906131cc565b8015611a1e5780601f106119f357610100808354040283529160200191611a1e565b820191906000526020600020905b815481529060010190602001808311611a0157829003601f168201915b505050505081526020018260a001516003811115611a3f57611a3e613335565b5b81526020018260c0015181526020018260e00151815250955050611a99565b6040517f08c379a0000000000000000000000000000000000000000000000000000000008152600401611a9090612e33565b60405180910390fd5b5050505092915050565b8282600080600260003373ffffffffffffffffffffffffffffffffffffffff1673ffffffffffffffffffffffffffffffffffffffff168152602001908152602001600020805480602002602001604051908101604052809291908181526020016000905b82821015611bb3578382906000526020600020018054611b26906131cc565b80601f0160208091040260200160405190810160405280929190818152602001828054611b52906131cc565b8015611b9f5780601f10611b7457610100808354040283529160200191611b9f565b820191906000526020600020905b815481529060010190602001808311611b8257829003601f168201915b505050505081526020019060010190611b07565b50505050905060005b8151811015611c2157818181518110611bd857611bd7613393565b5b6020026020010151805190602001208585604051611bf7929190612d8d565b60405180910390201415611c0e5760019250611c21565b8080611c199061322f565b915050611bbc565b5081611c62576040517f08c379a0000000000000000000000000000000000000000000000000000000008152600401611c5990612e73565b60405180910390fd5b600060038888604051611c76929190612da6565b9081526020016040518091039020905080600d0160009054906101000a900460ff1615611dcc576000861415611cd857600081600a0160006101000a81548160ff02191690836003811115611cce57611ccd613335565b5b0217905550611dc7565b6001861415611d1357600181600a0160006101000a81548160ff02191690836003811115611d0957611d08613335565b5b0217905550611dc6565b6002861415611d4e57600281600a0160006101000a81548160ff02191690836003811115611d4457611d43613335565b5b0217905550611dc5565b6003861415611d8957600381600a0160006101000a81548160ff02191690836003811115611d7f57611d7e613335565b5b0217905550611dc4565b6040517f08c379a0000000000000000000000000000000000000000000000000000000008152600401611dbb90612e53565b60405180910390fd5b5b5b5b611e07565b6040517f08c379a0000000000000000000000000000000000000000000000000000000008152600401611dfe90612e33565b60405180910390fd5b5050505050505050565b6000611e1f336001546121b1565b90506000604051806101200160405280838152602001858060000190611e459190612ef2565b8080601f016020809104026020016040519081016040528093929190818152602001838380828437600081840152601f19601f8201169050808301925050505050505081526020013373ffffffffffffffffffffffffffffffffffffffff1681526020018473ffffffffffffffffffffffffffffffffffffffff168152602001858060200190611ed59190612f55565b611ede90613177565b815260200160006003811115611ef757611ef6613335565b5b8152602001428152602001428152602001600115158152509050600260003373ffffffffffffffffffffffffffffffffffffffff1673ffffffffffffffffffffffffffffffffffffffff16815260200190815260200160002082908060018154018082558091505060019003906000526020600020016000909190919091509080519060200190611f89929190612422565b5080600383604051611f9b9190612dbf565b90815260200160405180910390206000820151816000019080519060200190611fc5929190612422565b506020820151816001019080519060200190611fe2929190612422565b5060408201518160020160006101000a81548173ffffffffffffffffffffffffffffffffffffffff021916908373ffffffffffffffffffffffffffffffffffffffff16021790555060608201518160030160006101000a81548173ffffffffffffffffffffffffffffffffffffffff021916908373ffffffffffffffffffffffffffffffffffffffff1602179055506080820151816004016000820151816000019080519060200190612096929190612422565b5060208201518160010190805190602001906120b3929190612422565b5060408201518160020190805190602001906120d0929190612422565b5060608201518160030190805190602001906120ed929190612422565b50608082015181600401908051906020019061210a929190612422565b5060a0820151816005019080519060200190612127929190612422565b50505060a082015181600a0160006101000a81548160ff0219169083600381111561215557612154613335565b5b021790555060c082015181600b015560e082015181600c015561010082015181600d0160006101000a81548160ff02191690831515021790555090505060018060008282546121a4919061304f565b9250508190555050505050565b6060600083836040516020016121c8929190612d61565b6040516020818303038152906040528051906020012060001c90506121ec816121f5565b91505092915050565b6060600082141561223d576040518060400160405280600181526020017f30000000000000000000000000000000000000000000000000000000000000008152509050612351565b600082905060005b6000821461226f5780806122589061322f565b915050600a8261226891906130a5565b9150612245565b60008167ffffffffffffffff81111561228b5761228a6133c2565b5b6040519080825280601f01601f1916602001820160405280156122bd5781602001600182028036833780820191505090505b5090505b6000851461234a576001826122d691906130d6565b9150600a856122e591906132a6565b60306122f1919061304f565b60f81b81838151811061230757612306613393565b5b60200101907effffffffffffffffffffffffffffffffffffffffffffffffffffffffffffff1916908160001a905350600a8561234391906130a5565b94506122c1565b8093505050505b919050565b6040518061012001604052806060815260200160608152602001600073ffffffffffffffffffffffffffffffffffffffff168152602001600073ffffffffffffffffffffffffffffffffffffffff1681526020016123b26124a8565b8152602001600060038111156123cb576123ca613335565b5b815260200160008152602001600081526020016000151581525090565b6040518060800160405280606081526020016000600381111561240e5761240d613335565b5b815260200160008152602001600081525090565b82805461242e906131cc565b90600052602060002090601f0160209004810192826124505760008555612497565b82601f1061246957805160ff1916838001178555612497565b82800160010185558215612497579182015b8281111561249657825182559160200191906001019061247b565b5b5090506124a491906124de565b5090565b6040518060c001604052806060815260200160608152602001606081526020016060815260200160608152602001606081525090565b5b808211156124f75760008160009055506001016124df565b5090565b600061250e61250984612fa2565b612f7d565b90508281526020810184848401111561252a5761252961341e565b5b61253584828561318a565b509392505050565b60008135905061254c81613529565b92915050565b60008083601f840112612568576125676133f6565b5b8235905067ffffffffffffffff811115612585576125846133f1565b5b6020830191508360018202830111156125a1576125a0613414565b5b9250929050565b600082601f8301126125bd576125bc6133f6565b5b81356125cd8482602086016124fb565b91505092915050565b6000604082840312156125ec576125eb613400565b5b81905092915050565b600060c0828403121561260b5761260a613405565b5b61261560c0612f7d565b9050600082013567ffffffffffffffff8111156126355761263461340f565b5b612641848285016125a8565b600083015250602082013567ffffffffffffffff8111156126655761266461340f565b5b612671848285016125a8565b602083015250604082013567ffffffffffffffff8111156126955761269461340f565b5b6126a1848285016125a8565b604083015250606082013567ffffffffffffffff8111156126c5576126c461340f565b5b6126d1848285016125a8565b606083015250608082013567ffffffffffffffff8111156126f5576126f461340f565b5b612701848285016125a8565b60808301525060a082013567ffffffffffffffff8111156127255761272461340f565b5b612731848285016125a8565b60a08301525092915050565b60008135905061274c81613540565b92915050565b6000806020838503121561276957612768613428565b5b600083013567ffffffffffffffff81111561278757612786613423565b5b61279385828601612552565b92509250509250929050565b6000806000604084860312156127b8576127b7613428565b5b600084013567ffffffffffffffff8111156127d6576127d5613423565b5b6127e286828701612552565b935093505060206127f58682870161273d565b9150509250925092565b6000806040838503121561281657612815613428565b5b600083013567ffffffffffffffff81111561283457612833613423565b5b612840858286016125d6565b92505060206128518582860161253d565b9150509250929050565b60006128678383612ada565b905092915050565b6128788161310a565b82525050565b6128878161310a565b82525050565b61289e6128998261310a565b613278565b82525050565b60006128af82612fe3565b6128b98185613006565b9350836020820285016128cb85612fd3565b8060005b8581101561290757848403895281516128e8858261285b565b94506128f383612ff9565b925060208a019950506001810190506128cf565b50829750879550505050505092915050565b6129228161311c565b82525050565b60006129348385613017565b935061294183858461318a565b82840190509392505050565b61295681613165565b82525050565b60006129688385613044565b935061297583858461318a565b82840190509392505050565b600061298c82612fee565b6129968185613022565b93506129a6818560208601613199565b6129af8161342d565b840191505092915050565b60006129c582612fee565b6129cf8185613044565b93506129df818560208601613199565b80840191505092915050565b60006129f8601683613033565b9150612a038261344b565b602082019050919050565b6000612a1b600983613033565b9150612a2682613474565b602082019050919050565b6000612a3e600e83613033565b9150612a498261349d565b602082019050919050565b6000612a61603a83613033565b9150612a6c826134c6565b604082019050919050565b60006080830160008301518482036000860152612a948282612981565b9150506020830151612aa9602086018261294d565b506040830151612abc6040860182612d2c565b506060830151612acf6060860182612d2c565b508091505092915050565b6000610120830160008301518482036000860152612af88282612981565b91505060208301518482036020860152612b128282612981565b9150506040830151612b27604086018261286f565b506060830151612b3a606086018261286f565b5060808301518482036080860152612b528282612c80565b91505060a0830151612b6760a086018261294d565b5060c0830151612b7a60c0860182612d2c565b5060e0830151612b8d60e0860182612d2c565b50610100830151612ba2610100860182612919565b508091505092915050565b6000610120830160008301518482036000860152612bcb8282612981565b91505060208301518482036020860152612be58282612981565b9150506040830151612bfa604086018261286f565b506060830151612c0d606086018261286f565b5060808301518482036080860152612c258282612c80565b91505060a0830151612c3a60a086018261294d565b5060c0830151612c4d60c0860182612d2c565b5060e0830151612c6060e0860182612d2c565b50610100830151612c75610100860182612919565b508091505092915050565b600060c0830160008301518482036000860152612c9d8282612981565b91505060208301518482036020860152612cb78282612981565b91505060408301518482036040860152612cd18282612981565b91505060608301518482036060860152612ceb8282612981565b91505060808301518482036080860152612d058282612981565b91505060a083015184820360a0860152612d1f8282612981565b9150508091505092915050565b612d358161315b565b82525050565b612d448161315b565b82525050565b612d5b612d568261315b565b61329c565b82525050565b6000612d6d828561288d565b601482019150612d7d8284612d4a565b6020820191508190509392505050565b6000612d9a828486612928565b91508190509392505050565b6000612db382848661295c565b91508190509392505050565b6000612dcb82846129ba565b915081905092915050565b6000602082019050612deb600083018461287e565b92915050565b60006020820190508181036000830152612e0b81846128a4565b905092915050565b60006020820190508181036000830152612e2c816129eb565b9050919050565b60006020820190508181036000830152612e4c81612a0e565b9050919050565b60006020820190508181036000830152612e6c81612a31565b9050919050565b60006020820190508181036000830152612e8c81612a54565b9050919050565b60006020820190508181036000830152612ead8184612a77565b905092915050565b60006020820190508181036000830152612ecf8184612bad565b905092915050565b6000602082019050612eec6000830184612d3b565b92915050565b60008083356001602003843603038112612f0f57612f0e61340a565b5b80840192508235915067ffffffffffffffff821115612f3157612f306133fb565b5b602083019250600182023603831315612f4d57612f4c613419565b5b509250929050565b60008235600160c003833603038112612f7157612f7061340a565b5b80830191505092915050565b6000612f87612f98565b9050612f9382826131fe565b919050565b6000604051905090565b600067ffffffffffffffff821115612fbd57612fbc6133c2565b5b612fc68261342d565b9050602081019050919050565b6000819050602082019050919050565b600081519050919050565b600081519050919050565b6000602082019050919050565b600082825260208201905092915050565b600081905092915050565b600082825260208201905092915050565b600082825260208201905092915050565b600081905092915050565b600061305a8261315b565b91506130658361315b565b9250827fffffffffffffffffffffffffffffffffffffffffffffffffffffffffffffffff0382111561309a576130996132d7565b5b828201905092915050565b60006130b08261315b565b91506130bb8361315b565b9250826130cb576130ca613306565b5b828204905092915050565b60006130e18261315b565b91506130ec8361315b565b9250828210156130ff576130fe6132d7565b5b828203905092915050565b60006131158261313b565b9050919050565b60008115159050919050565b600081905061313682613515565b919050565b600073ffffffffffffffffffffffffffffffffffffffff82169050919050565b6000819050919050565b600061317082613128565b9050919050565b600061318336836125f5565b9050919050565b82818337600083830152505050565b60005b838110156131b757808201518184015260208101905061319c565b838111156131c6576000848401525b50505050565b600060028204905060018216806131e457607f821691505b602082108114156131f8576131f7613364565b5b50919050565b6132078261342d565b810181811067ffffffffffffffff82111715613226576132256133c2565b5b80604052505050565b600061323a8261315b565b91507fffffffffffffffffffffffffffffffffffffffffffffffffffffffffffffffff82141561326d5761326c6132d7565b5b600182019050919050565b60006132838261328a565b9050919050565b60006132958261343e565b9050919050565b6000819050919050565b60006132b18261315b565b91506132bc8361315b565b9250826132cc576132cb613306565b5b828206905092915050565b7f4e487b7100000000000000000000000000000000000000000000000000000000600052601160045260246000fd5b7f4e487b7100000000000000000000000000000000000000000000000000000000600052601260045260246000fd5b7f4e487b7100000000000000000000000000000000000000000000000000000000600052602160045260246000fd5b7f4e487b7100000000000000000000000000000000000000000000000000000000600052602260045260246000fd5b7f4e487b7100000000000000000000000000000000000000000000000000000000600052603260045260246000fd5b7f4e487b7100000000000000000000000000000000000000000000000000000000600052604160045260246000fd5b600080fd5b600080fd5b600080fd5b600080fd5b600080fd5b600080fd5b600080fd5b600080fd5b600080fd5b600080fd5b600080fd5b600080fd5b6000601f19601f8301169050919050565b60008160601b9050919050565b7f4e6f207061636b616765732073656e7420666f756e6400000000000000000000600082015250565b7f4e6f7420666f756e640000000000000000000000000000000000000000000000600082015250565b7f496e76616c696420737461747573000000000000000000000000000000000000600082015250565b7f536f6d656e7465206f2072656d6574656e746520646f207061636f746520706f60008201527f64652065786563757461722065737361206f7065726163616f21000000000000602082015250565b6004811061352657613525613335565b5b50565b6135328161310a565b811461353d57600080fd5b50565b6135498161315b565b811461355457600080fd5b5056fea26469706673582212206964fe945c09c36952615cf981a6e19eeaa05cd4ecbf25e935395a91b3906fda64736f6c63430008070033",
  "immutableReferences": {},
  "source": "// SPDX-License-Identifier: GPL-3.0\n\npragma solidity ^0.8.7;\n\n/**\n * @title Storage\n * @dev Store & retrieve value in a variable\n * @custom:dev-run-script ./scripts/deploy_with_ethers.ts\n */\npragma solidity ^0.8.7;\n\nimport \"@openzeppelin/contracts/utils/Strings.sol\";\n\ncontract TransportRegister {\n        \n    address public owner;\n\n    // usado para gerar hashes dos pacotes\n    uint256 public packagesCount;\n\n    // struct bsica de endereo\n    struct StreetAddress {\n        string name;\n        string district;\n        string city;\n        string state;\n        string number;\n        string complement;\n    }\n\n    enum PackageStatus{ PROCESSING, TRANSPORTING, DELIVERED, CANCELLED }\n\n    struct Package {\n        string packageId;\n        string description;\n        address sender;\n        address receiver;\n        StreetAddress deliveryAddress;\n        PackageStatus status;\n        uint createdDate;\n        uint lastUpdatedDate; \n        bool exists;\n    }\n\n    // DTO de entrada do pacote\n    struct PackageData {\n        string description;\n        StreetAddress deliveryAddress;\n    }\n\n    // DTO do status do pacote\n    struct PackageStatusDTO {\n        string statusMessage;\n        PackageStatus status;\n        uint createdDate;\n        uint lastUpdatedDate;\n    }\n\n    // Mappings\n \n    mapping(address =>  string[]) sendersPackages;\n\n    mapping(string => Package) packagesIndex;\n\n    mapping(uint => string) statusMessages;\n\n    //  Modifiers\n\n    modifier isSender(string calldata packageId) {\n        bool result = false;\n        string[] memory packagesList = sendersPackages[msg.sender];\n\n        for (uint i=0; i < packagesList.length; i++) {\n            if (keccak256(bytes(packageId)) == keccak256(bytes(packagesList[i]))) {\n                result = true;\n                break;\n            }\n        }\n\n        require(result , \"Somente o remetente do pacote pode executar essa operacao!\");\n        _;\n    }\n    \n    constructor () {\n        owner = msg.sender;\n\n        statusMessages[0] = \"Em processamento\";\n        statusMessages[1] = \"Em transporte\";\n        statusMessages[2] = \"Entregue\";\n        statusMessages[3] = \"Cancelado\";\n\n        packagesCount = 0;\n    }\n\n    // funo que gera hash de id para um pacote com base no endereo do remetente e de um nmero sequencial\n    function getPackageHashId(address senderAddress, uint256 number) private pure returns (string memory) {\n        uint rand = uint(keccak256(abi.encodePacked(senderAddress, number)));\n        return Strings.toString(rand);\n    }\n\n    // registrar um novo pacote, torna o sender da mensagem o remetente do pacote\n    function registerPackage (PackageData calldata packageData, address receiver) public {\n        \n        // novo id\n        string memory packageHashId = getPackageHashId(msg.sender, packagesCount);\n        \n        // objeto do pacote\n        Package memory newPackage = Package({\n            packageId: packageHashId,\n            description: packageData.description,\n            sender: msg.sender,\n            receiver: receiver,\n            deliveryAddress: packageData.deliveryAddress,\n            status: PackageStatus.PROCESSING,\n            createdDate: block.timestamp,\n            lastUpdatedDate: block.timestamp,\n            exists: true\n        });\n\n        // relaciona o rementente com o id do pacote        \n        sendersPackages[msg.sender].push(packageHashId);\n\n        // adiciona o pacote ao indice\n        packagesIndex[packageHashId] = newPackage;\n\n        packagesCount += 1;\n    }\n\n    function getPackage(string calldata packageId) public view isSender(packageId) returns (Package memory) {\n        Package memory package = packagesIndex[packageId];\n\n        // retorna o pacote inteiro\n        if (package.exists) {\n            return package;\n        }\n\n        revert(\"Not found\");\n    } \n\n    function getPackageStatus(string calldata packageId) public view isSender(packageId) returns (PackageStatusDTO memory){\n        Package memory package = packagesIndex[packageId];\n \n        // retorna o ultimo endereco registrado e o status do pacote como completo ou em rota\n        if (package.exists) {\n            return PackageStatusDTO({\n                status: package.status,\n                statusMessage: statusMessages[uint(package.status)],\n                createdDate: package.createdDate,\n                lastUpdatedDate: package.lastUpdatedDate\n            });\n        }\n\n        revert(\"Not found\");\n    } \n\n    // atualiza a rota do pacote\n    function updatePackageStatus(string calldata packageId, uint newStatus) public isSender(packageId) {\n        Package storage package = packagesIndex[packageId];\n\n        // atualiza e salva\n        if (package.exists) {\n            if (newStatus == 0) {\n                package.status = PackageStatus.PROCESSING;\n            } else {\n                if (newStatus == 1) {\n                    package.status = PackageStatus.TRANSPORTING;\n                } else {\n                    if (newStatus == 2) {\n                        package.status = PackageStatus.DELIVERED;\n                    } else {\n                        if (newStatus == 3) {\n                            package.status = PackageStatus.CANCELLED;\n                        } else {\n                            revert(\"Invalid status\");\n                        }\n                    }\n                }\n            }\n\n            package.lastUpdatedDate == block.timestamp;\n        } else {\n            revert(\"Not found\");\n        }\n\n\n    } \n\n    // retorna todos os pacotes enviados pelo sender da mensagem\n    function listMySentPackages() public view returns (Package[] memory) {\n        string[] memory packagesIds = sendersPackages[msg.sender];\n\n        if (packagesIds.length > 0) {\n            Package[] memory packages = new Package[](packagesIds.length);\n            for (uint i=0; i < packagesIds.length; i++) {\n                Package memory package = packagesIndex[packagesIds[i]];\n                \n                packages[i] = package;\n            }\n\n            return packages;\n        }\n\n        revert(\"No packages sent found\");\n    }\n\n}\n",
  "sourcePath": "/home/miguel/Workspace/transport-smart-contract/contracts/TransportRegister.sol",
  "compiler": {
    "name": "solc",
    "version": "0.8.7+commit.e28d00a7.Emscripten.clang"
  },
  "schemaVersion": "3.4.10",
  "updatedAt": "2022-10-16T05:40:08.477Z",
  "networkType": "ethereum",
  "devdoc": {
    "kind": "dev",
    "methods": {},
    "version": 1
  },
  "userdoc": {
    "kind": "user",
    "methods": {},
    "version": 1
  }
}